{
  "contractName": "Marketplace",
  "abi": [
    {
      "constant": true,
      "inputs": [],
      "name": "tips",
      "outputs": [
        {
          "name": "",
          "type": "uint256"
        }
      ],
      "payable": false,
      "stateMutability": "view",
      "type": "function"
    },
    {
      "constant": true,
      "inputs": [
        {
          "name": "",
          "type": "bytes32"
        }
      ],
      "name": "items",
      "outputs": [
        {
          "name": "itemId",
          "type": "bytes32"
        },
        {
          "name": "name",
          "type": "string"
        },
        {
          "name": "price",
          "type": "uint256"
        },
        {
          "name": "qty",
          "type": "uint256"
        }
      ],
      "payable": false,
      "stateMutability": "view",
      "type": "function"
    },
    {
      "constant": true,
      "inputs": [],
      "name": "freezeContr",
      "outputs": [
        {
          "name": "",
          "type": "bool"
        }
      ],
      "payable": false,
      "stateMutability": "view",
      "type": "function"
    },
    {
      "constant": true,
      "inputs": [],
      "name": "owner",
      "outputs": [
        {
          "name": "",
          "type": "address"
        }
      ],
      "payable": false,
      "stateMutability": "view",
      "type": "function"
    },
    {
      "constant": true,
      "inputs": [
        {
          "name": "",
          "type": "uint256"
        }
      ],
      "name": "itemIds",
      "outputs": [
        {
          "name": "",
          "type": "bytes32"
        }
      ],
      "payable": false,
      "stateMutability": "view",
      "type": "function"
    },
    {
      "constant": true,
      "inputs": [],
      "name": "itemIdToAddOrBuy",
      "outputs": [
        {
          "name": "",
          "type": "bytes32"
        }
      ],
      "payable": false,
      "stateMutability": "view",
      "type": "function"
    },
    {
      "inputs": [],
      "payable": false,
      "stateMutability": "nonpayable",
      "type": "constructor"
    },
    {
      "anonymous": false,
      "inputs": [
        {
          "indexed": false,
          "name": "desc",
          "type": "string"
        },
        {
          "indexed": false,
          "name": "name",
          "type": "string"
        },
        {
          "indexed": false,
          "name": "price",
          "type": "uint256"
        },
        {
          "indexed": false,
          "name": "qty",
          "type": "uint256"
        },
        {
          "indexed": false,
          "name": "amount",
          "type": "uint256"
        }
      ],
      "name": "LogItemPurchased",
      "type": "event"
    },
    {
      "anonymous": false,
      "inputs": [
        {
          "indexed": false,
          "name": "id",
          "type": "bytes32"
        },
        {
          "indexed": false,
          "name": "tipAmount",
          "type": "uint256"
        }
      ],
      "name": "LogTipsAdded",
      "type": "event"
    },
    {
      "anonymous": false,
      "inputs": [
        {
          "indexed": false,
          "name": "desc",
          "type": "string"
        },
        {
          "indexed": false,
          "name": "name",
          "type": "string"
        },
        {
          "indexed": false,
          "name": "price",
          "type": "uint256"
        },
        {
          "indexed": false,
          "name": "qty",
          "type": "uint256"
        }
      ],
      "name": "LogItemInserted",
      "type": "event"
    },
    {
      "anonymous": false,
      "inputs": [
        {
          "indexed": false,
          "name": "desc",
          "type": "string"
        },
        {
          "indexed": false,
          "name": "name",
          "type": "string"
        },
        {
          "indexed": false,
          "name": "price",
          "type": "uint256"
        },
        {
          "indexed": false,
          "name": "qty",
          "type": "uint256"
        }
      ],
      "name": "LogItemSupplied",
      "type": "event"
    },
    {
      "anonymous": false,
      "inputs": [
        {
          "indexed": false,
          "name": "desc",
          "type": "string"
        },
        {
          "indexed": true,
          "name": "to",
          "type": "address"
        },
        {
          "indexed": false,
          "name": "amount",
          "type": "uint256"
        },
        {
          "indexed": false,
          "name": "tips",
          "type": "uint256"
        }
      ],
      "name": "LogRefund",
      "type": "event"
    },
    {
      "anonymous": false,
      "inputs": [
        {
          "indexed": false,
          "name": "desc",
          "type": "string"
        },
        {
          "indexed": false,
          "name": "name",
          "type": "string"
        },
        {
          "indexed": false,
          "name": "newPrice",
          "type": "uint256"
        },
        {
          "indexed": false,
          "name": "oldPrice",
          "type": "uint256"
        }
      ],
      "name": "LogItemPriceChanged",
      "type": "event"
    },
    {
      "constant": false,
      "inputs": [],
      "name": "freezeContract",
      "outputs": [],
      "payable": false,
      "stateMutability": "nonpayable",
      "type": "function"
    },
    {
      "constant": false,
      "inputs": [],
      "name": "unFreezeContract",
      "outputs": [],
      "payable": false,
      "stateMutability": "nonpayable",
      "type": "function"
    },
    {
      "constant": false,
      "inputs": [
        {
          "name": "_name",
          "type": "string"
        },
        {
          "name": "_price",
          "type": "uint256"
        },
        {
          "name": "_qty",
          "type": "uint256"
        }
      ],
      "name": "newProduct",
      "outputs": [
        {
          "name": "",
          "type": "bytes32"
        }
      ],
      "payable": false,
      "stateMutability": "nonpayable",
      "type": "function"
    },
    {
      "constant": false,
      "inputs": [
        {
          "name": "_name",
          "type": "string"
        },
        {
          "name": "_price",
          "type": "uint256"
        },
        {
          "name": "_qty",
          "type": "uint256"
        }
      ],
      "name": "update",
      "outputs": [
        {
          "name": "",
          "type": "bool"
        }
      ],
      "payable": false,
      "stateMutability": "nonpayable",
      "type": "function"
    },
    {
      "constant": false,
      "inputs": [
        {
          "name": "_name",
          "type": "string"
        },
        {
          "name": "_qty",
          "type": "uint256"
        }
      ],
      "name": "buy",
      "outputs": [
        {
          "name": "",
          "type": "bool"
        }
      ],
      "payable": true,
      "stateMutability": "payable",
      "type": "function"
    },
    {
      "constant": true,
      "inputs": [
        {
          "name": "_itemId",
          "type": "bytes32"
        }
      ],
      "name": "getItemByID",
      "outputs": [
        {
          "name": "",
          "type": "string"
        },
        {
          "name": "",
          "type": "uint256"
        },
        {
          "name": "",
          "type": "uint256"
        }
      ],
      "payable": false,
      "stateMutability": "view",
      "type": "function"
    },
    {
      "constant": true,
      "inputs": [
        {
          "name": "_name",
          "type": "string"
        }
      ],
      "name": "getItemByName",
      "outputs": [
        {
          "name": "",
          "type": "string"
        },
        {
          "name": "",
          "type": "uint256"
        },
        {
          "name": "",
          "type": "uint256"
        }
      ],
      "payable": false,
      "stateMutability": "view",
      "type": "function"
    },
    {
      "constant": true,
      "inputs": [],
      "name": "getProducts",
      "outputs": [
        {
          "name": "",
          "type": "bytes32[]"
        }
      ],
      "payable": false,
      "stateMutability": "view",
      "type": "function"
    },
    {
      "constant": true,
      "inputs": [
        {
          "name": "itemId",
          "type": "bytes32"
        }
      ],
      "name": "getPrice",
      "outputs": [
        {
          "name": "",
          "type": "uint256"
        }
      ],
      "payable": false,
      "stateMutability": "view",
      "type": "function"
    },
    {
      "constant": false,
      "inputs": [],
      "name": "withdraw",
      "outputs": [
        {
          "name": "",
          "type": "bool"
        }
      ],
      "payable": true,
      "stateMutability": "payable",
      "type": "function"
    }
  ],
  "bytecode": "0x608060405234801561001057600080fd5b50336000806101000a81548173ffffffffffffffffffffffffffffffffffffffff021916908373ffffffffffffffffffffffffffffffffffffffff1602179055506000600560006101000a81548160ff021916908315150217905550612a4f8061007b6000396000f3006080604052600436106100e6576000357c0100000000000000000000000000000000000000000000000000000000900463ffffffff1680630ca5c504146100eb5780631a4e1e781461016957806331d98b3f146101945780633ccfd60b146101d957806348f343f3146101fb5780634a450aa0146102c25780635f1d825f146102f15780638da5cb5b14610308578063a0113f111461035f578063a584a9b514610417578063b3dc00fe1461042e578063c29b2f2014610477578063d8bb9bb3146104e3578063dfdb7e6614610578578063e6f26425146105ab578063f7d85c0514610644575b600080fd5b61014f600480360381019080803590602001908201803590602001908080601f016020809104026020016040519081016040528093929190818152602001838380828437820191505050505050919291929080359060200190929190505050610734565b604051808215151515815260200191505060405180910390f35b34801561017557600080fd5b5061017e610efd565b6040518082815260200191505060405180910390f35b3480156101a057600080fd5b506101c36004803603810190808035600019169060200190929190505050610f03565b6040518082815260200191505060405180910390f35b6101e1610f2b565b604051808215151515815260200191505060405180910390f35b34801561020757600080fd5b5061022a6004803603810190808035600019169060200190929190505050611255565b60405180856000191660001916815260200180602001848152602001838152602001828103825285818151815260200191508051906020019080838360005b83811015610284578082015181840152602081019050610269565b50505050905090810190601f1680156102b15780820380516001836020036101000a031916815260200191505b509550505050505060405180910390f35b3480156102ce57600080fd5b506102d761131d565b604051808215151515815260200191505060405180910390f35b3480156102fd57600080fd5b50610306611330565b005b34801561031457600080fd5b5061031d611411565b604051808273ffffffffffffffffffffffffffffffffffffffff1673ffffffffffffffffffffffffffffffffffffffff16815260200191505060405180910390f35b34801561036b57600080fd5b5061038e6004803603810190808035600019169060200190929190505050611436565b6040518080602001848152602001838152602001828103825285818151815260200191508051906020019080838360005b838110156103da5780820151818401526020810190506103bf565b50505050905090810190601f1680156104075780820380516001836020036101000a031916815260200191505b5094505050505060405180910390f35b34801561042357600080fd5b5061042c61167e565b005b34801561043a57600080fd5b506104596004803603810190808035906020019092919050505061175f565b60405180826000191660001916815260200191505060405180910390f35b34801561048357600080fd5b5061048c611782565b6040518080602001828103825283818151815260200191508051906020019060200280838360005b838110156104cf5780820151818401526020810190506104b4565b505050509050019250505060405180910390f35b3480156104ef57600080fd5b5061055e600480360381019080803590602001908201803590602001908080601f0160208091040260200160405190810160405280939291908181526020018383808284378201915050505050509192919290803590602001909291908035906020019092919050505061192d565b604051808215151515815260200191505060405180910390f35b34801561058457600080fd5b5061058d611e00565b60405180826000191660001916815260200191505060405180910390f35b3480156105b757600080fd5b50610626600480360381019080803590602001908201803590602001908080601f01602080910402602001604051908101604052809392919081815260200183838082843782019150505050505091929192908035906020019092919080359060200190929190505050611e06565b60405180826000191660001916815260200191505060405180910390f35b34801561065057600080fd5b506106ab600480360381019080803590602001908201803590602001908080601f0160208091040260200160405190810160405280939291908181526020018383808284378201915050505050509192919290505050612237565b6040518080602001848152602001838152602001828103825285818151815260200191508051906020019080838360005b838110156106f75780820151818401526020810190506106dc565b50505050905090810190601f1680156107245780820380516001836020036101000a031916815260200191505b5094505050505060405180910390f35b60008060008060001515600560009054906101000a900460ff1615151415156107c5576040517f08c379a00000000000000000000000000000000000000000000000000000000081526004018080602001828103825260138152602001807f436f6e747261637420697320667265657a65640000000000000000000000000081525060200191505060405180910390fd5b85806040516020018082805190602001908083835b6020831015156107ff57805182526020820191506020810190506020830392506107da565b6001836020036101000a0380198251168184511680821785525050505050509050019150506040516020818303038152906040526040518082805190602001908083835b6020831015156108685780518252602082019150602081019050602083039250610843565b6001836020036101000a0380198251168184511680821785525050505050509050019150506040518091039020600281600019169055506000600102600360006002546000191660001916815260200190815260200160002060000154600019161415151561093f576040517f08c379a00000000000000000000000000000000000000000000000000000000081526004018080602001828103825260208152602001807f4974656d20646f65736e277420657869737420696e207468652053746f72652181525060200191505060405180910390fd5b856000341115156109b8576040517f08c379a000000000000000000000000000000000000000000000000000000000815260040180806020018281038252601e8152602001807f416d6f756e742073656e742073686f756c6420626520706f736974697665000081525060200191505060405180910390fd5b8060036000600254600019166000191681526020019081526020016000206003015410151515610a50576040517f08c379a000000000000000000000000000000000000000000000000000000000815260040180806020018281038252601e8152602001807f556e73756666696369656e74207175616e74697479206f66206974656d2e000081525060200191505060405180910390fd5b610a7a816003600060025460001916600019168152602001908152602001600020600201546125ea565b3410151515610af1576040517f08c379a00000000000000000000000000000000000000000000000000000000081526004018080602001828103825260198152602001807f556e73756666696369656e7420616d6f756e742073656e742e0000000000000081525060200191505060405180910390fd5b610b2660008860006003600060025460001916600019168152602001908152602001600020612622909392919063ffffffff16565b1515610bc0576040517f08c379a000000000000000000000000000000000000000000000000000000000815260040180806020018281038252602f8152602001807f456974686572206d697373696e67207175616e746974792c206f7220756e737581526020017f6666696369656e7420616d6f756e74000000000000000000000000000000000081525060400191505060405180910390fd5b6003600060025460001916600019168152602001908152602001600020600201549450610c16876003600060025460001916600019168152602001908152602001600020600201546125ea90919063ffffffff16565b9350610c2b843461269c90919063ffffffff16565b92506000831115610c9b57610c4b836001546126b590919063ffffffff16565b6001819055507f073aa1430fa3eb165a32d80436f1b705d94f9926fa7504a420d3f2ff99fcee2f600254846040518083600019166000191681526020018281526020019250505060405180910390a15b6000610cc260036000600254600019166000191681526020019081526020016000206126d1565b1115610eed5760036000600254600019166000191681526020019081526020016000206002015485141515610df7577f6a298ce0b40e9ea6e7d2b3724c86be180fc443c612f5fcd797f4977877b05e2f8860036000600254600019166000191681526020019081526020016000206002015487604051808060200180602001858152602001848152602001838103835260118152602001807f496e63726561736520696e207072696365000000000000000000000000000000815250602001838103825286818151815260200191508051906020019080838360005b83811015610db9578082015181840152602081019050610d9e565b50505050905090810190601f168015610de65780820380516001836020036101000a031916815260200191505b509550505050505060405180910390a15b7f5831a7ffe60d81fcca4b6eb20499cba1d3b0b00792f192869835c268598f1b7388868987604051808060200180602001868152602001858152602001848152602001838103835260118152602001807f4974656d20697320707572636861736564000000000000000000000000000000815250602001838103825287818151815260200191508051906020019080838360005b83811015610ea6578082015181840152602081019050610e8b565b50505050905090810190601f168015610ed35780820380516001836020036101000a031916815260200191505b50965050505050505060405180910390a160019550610ef2565b600095505b505050505092915050565b60015481565b6000600360008360001916600019168152602001908152602001600020600201549050919050565b60008060001515600560009054906101000a900460ff161515141515610fb9576040517f08c379a00000000000000000000000000000000000000000000000000000000081526004018080602001828103825260138152602001807f436f6e747261637420697320667265657a65640000000000000000000000000081525060200191505060405180910390fd5b6000809054906101000a900473ffffffffffffffffffffffffffffffffffffffff1673ffffffffffffffffffffffffffffffffffffffff163373ffffffffffffffffffffffffffffffffffffffff1614151561107d576040517f08c379a000000000000000000000000000000000000000000000000000000000815260040180806020018281038252600b8152602001807f4f6e6c79204f776e65722100000000000000000000000000000000000000000081525060200191505060405180910390fd5b60003073ffffffffffffffffffffffffffffffffffffffff163111151561110c576040517f08c379a00000000000000000000000000000000000000000000000000000000081526004018080602001828103825260118152602001807f596f75722062616c616e6365206973203000000000000000000000000000000081525060200191505060405180910390fd5b3073ffffffffffffffffffffffffffffffffffffffff163190506000809054906101000a900473ffffffffffffffffffffffffffffffffffffffff1673ffffffffffffffffffffffffffffffffffffffff167f32063c2bb7678be5af064c6fb369087f971f378496aea2ec2d98ff6b052abd4a826001546040518080602001848152602001838152602001828103825260318152602001807f416d6f756e7420726566756e6420746f206f776e65722c2070617274206f662081526020017f616d6f756e742061726520746970733a20000000000000000000000000000000815250604001935050505060405180910390a260006001819055503373ffffffffffffffffffffffffffffffffffffffff166108fc829081150290604051600060405180830381858888f1935050505015801561124c573d6000803e3d6000fd5b50600191505090565b6003602052806000526040600020600091509050806000015490806001018054600181600116156101000203166002900480601f0160208091040260200160405190810160405280929190818152602001828054600181600116156101000203166002900480156113075780601f106112dc57610100808354040283529160200191611307565b820191906000526020600020905b8154815290600101906020018083116112ea57829003601f168201915b5050505050908060020154908060030154905084565b600560009054906101000a900460ff1681565b6000809054906101000a900473ffffffffffffffffffffffffffffffffffffffff1673ffffffffffffffffffffffffffffffffffffffff163373ffffffffffffffffffffffffffffffffffffffff161415156113f4576040517f08c379a000000000000000000000000000000000000000000000000000000000815260040180806020018281038252600b8152602001807f4f6e6c79204f776e65722100000000000000000000000000000000000000000081525060200191505060405180910390fd5b6000600560006101000a81548160ff021916908315150217905550565b6000809054906101000a900473ffffffffffffffffffffffffffffffffffffffff1681565b606060008060001515600560009054906101000a900460ff1615151415156114c6576040517f08c379a00000000000000000000000000000000000000000000000000000000081526004018080602001828103825260138152602001807f436f6e747261637420697320667265657a65640000000000000000000000000081525060200191505060405180910390fd5b6000809054906101000a900473ffffffffffffffffffffffffffffffffffffffff1673ffffffffffffffffffffffffffffffffffffffff163373ffffffffffffffffffffffffffffffffffffffff1614151561158a576040517f08c379a000000000000000000000000000000000000000000000000000000000815260040180806020018281038252600b8152602001807f4f6e6c79204f776e65722100000000000000000000000000000000000000000081525060200191505060405180910390fd5b600060010260036000866000191660001916815260200190815260200160002060000154600019161415151561164e576040517f08c379a00000000000000000000000000000000000000000000000000000000081526004018080602001828103825260228152602001807f4974656d496420646f65736e277420657869737420696e207468652073746f7281526020017f652100000000000000000000000000000000000000000000000000000000000081525060400191505060405180910390fd5b611671600360008660001916600019168152602001908152602001600020612832565b9250925092509193909250565b6000809054906101000a900473ffffffffffffffffffffffffffffffffffffffff1673ffffffffffffffffffffffffffffffffffffffff163373ffffffffffffffffffffffffffffffffffffffff16141515611742576040517f08c379a000000000000000000000000000000000000000000000000000000000815260040180806020018281038252600b8152602001807f4f6e6c79204f776e65722100000000000000000000000000000000000000000081525060200191505060405180910390fd5b6001600560006101000a81548160ff021916908315150217905550565b60048181548110151561176e57fe5b906000526020600020016000915090505481565b606060001515600560009054906101000a900460ff16151514151561180f576040517f08c379a00000000000000000000000000000000000000000000000000000000081526004018080602001828103825260138152602001807f436f6e747261637420697320667265657a65640000000000000000000000000081525060200191505060405180910390fd5b6000809054906101000a900473ffffffffffffffffffffffffffffffffffffffff1673ffffffffffffffffffffffffffffffffffffffff163373ffffffffffffffffffffffffffffffffffffffff161415156118d3576040517f08c379a000000000000000000000000000000000000000000000000000000000815260040180806020018281038252600b8152602001807f4f6e6c79204f776e65722100000000000000000000000000000000000000000081525060200191505060405180910390fd5b600480548060200260200160405190810160405280929190818152602001828054801561192357602002820191906000526020600020905b8154600019168152602001906001019080831161190b575b5050505050905090565b6000801515600560009054906101000a900460ff1615151415156119b9576040517f08c379a00000000000000000000000000000000000000000000000000000000081526004018080602001828103825260138152602001807f436f6e747261637420697320667265657a65640000000000000000000000000081525060200191505060405180910390fd5b83806040516020018082805190602001908083835b6020831015156119f357805182526020820191506020810190506020830392506119ce565b6001836020036101000a0380198251168184511680821785525050505050509050019150506040516020818303038152906040526040518082805190602001908083835b602083101515611a5c5780518252602082019150602081019050602083039250611a37565b6001836020036101000a03801982511681845116808217855250505050505090500191505060405180910390206002816000191690555060006001026003600060025460001916600019168152602001908152602001600020600001546000191614151515611b33576040517f08c379a00000000000000000000000000000000000000000000000000000000081526004018080602001828103825260208152602001807f4974656d20646f65736e277420657869737420696e207468652053746f72652181525060200191505060405180910390fd5b6000809054906101000a900473ffffffffffffffffffffffffffffffffffffffff1673ffffffffffffffffffffffffffffffffffffffff163373ffffffffffffffffffffffffffffffffffffffff16141515611bf7576040517f08c379a000000000000000000000000000000000000000000000000000000000815260040180806020018281038252600b8152602001807f4f6e6c79204f776e65722100000000000000000000000000000000000000000081525060200191505060405180910390fd5b846040516020018082805190602001908083835b602083101515611c305780518252602082019150602081019050602083039250611c0b565b6001836020036101000a0380198251168184511680821785525050505050509050019150506040516020818303038152906040526040518082805190602001908083835b602083101515611c995780518252602082019150602081019050602083039250611c74565b6001836020036101000a038019825116818451168082178552505050505050905001915050604051809103902060028160001916905550611d04848460016003600060025460001916600019168152602001908152602001600020612622909392919063ffffffff16565b1515611d0f57600080fd5b7f7886b545a8989d3101b6604b7334addc13bdd5ecbefa7a8c382642f974ad5254858585604051808060200180602001858152602001848152602001838103835260158152602001807f4e657720737570706c7920666f72206974656d3a200000000000000000000000815250602001838103825286818151815260200191508051906020019080838360005b83811015611db7578082015181840152602081019050611d9c565b50505050905090810190601f168015611de45780820380516001836020036101000a031916815260200191505b509550505050505060405180910390a160019150509392505050565b60025481565b6000801515600560009054906101000a900460ff161515141515611e92576040517f08c379a00000000000000000000000000000000000000000000000000000000081526004018080602001828103825260138152602001807f436f6e747261637420697320667265657a65640000000000000000000000000081525060200191505060405180910390fd5b83806040516020018082805190602001908083835b602083101515611ecc5780518252602082019150602081019050602083039250611ea7565b6001836020036101000a0380198251168184511680821785525050505050509050019150506040516020818303038152906040526040518082805190602001908083835b602083101515611f355780518252602082019150602081019050602083039250611f10565b6001836020036101000a03801982511681845116808217855250505050505090500191505060405180910390206002816000191690555060006001026003600060025460001916600019168152602001908152602001600020600001546000191614151561200b576040517f08c379a00000000000000000000000000000000000000000000000000000000081526004018080602001828103825260198152602001807f4974656d2065786973747320696e207468652053746f72652e0000000000000081525060200191505060405180910390fd5b6000809054906101000a900473ffffffffffffffffffffffffffffffffffffffff1673ffffffffffffffffffffffffffffffffffffffff163373ffffffffffffffffffffffffffffffffffffffff161415156120cf576040517f08c379a000000000000000000000000000000000000000000000000000000000815260040180806020018281038252600b8152602001807f4f6e6c79204f776e65722100000000000000000000000000000000000000000081525060200191505060405180910390fd5b61210660025486868660036000600254600019166000191681526020019081526020016000206128ee90949392919063ffffffff16565b151561211157600080fd5b600460025490806001815401808255809150509060018203906000526020600020016000909192909190915090600019169055507f937191dad974b016f418b31aae04f9f4ea6c996e9f42cc67d360873f4827822a858585604051808060200180602001858152602001848152602001838103835260108152602001807f4974656d20697320696e73657274656400000000000000000000000000000000815250602001838103825286818151815260200191508051906020019080838360005b838110156121ed5780820151818401526020810190506121d2565b50505050905090810190601f16801561221a5780820380516001836020036101000a031916815260200191505b509550505050505060405180910390a16002549150509392505050565b606060008060001515600560009054906101000a900460ff1615151415156122c7576040517f08c379a00000000000000000000000000000000000000000000000000000000081526004018080602001828103825260138152602001807f436f6e747261637420697320667265657a65640000000000000000000000000081525060200191505060405180910390fd5b6000809054906101000a900473ffffffffffffffffffffffffffffffffffffffff1673ffffffffffffffffffffffffffffffffffffffff163373ffffffffffffffffffffffffffffffffffffffff1614151561238b576040517f08c379a000000000000000000000000000000000000000000000000000000000815260040180806020018281038252600b8152602001807f4f6e6c79204f776e65722100000000000000000000000000000000000000000081525060200191505060405180910390fd5b83806040516020018082805190602001908083835b6020831015156123c557805182526020820191506020810190506020830392506123a0565b6001836020036101000a0380198251168184511680821785525050505050509050019150506040516020818303038152906040526040518082805190602001908083835b60208310151561242e5780518252602082019150602081019050602083039250612409565b6001836020036101000a03801982511681845116808217855250505050505090500191505060405180910390206002816000191690555060006001026003600060025460001916600019168152602001908152602001600020600001546000191614151515612505576040517f08c379a00000000000000000000000000000000000000000000000000000000081526004018080602001828103825260208152602001807f4974656d20646f65736e277420657869737420696e207468652053746f72652181525060200191505060405180910390fd5b6125dc856040516020018082805190602001908083835b602083101515612541578051825260208201915060208101905060208303925061251c565b6001836020036101000a0380198251168184511680821785525050505050509050019150506040516020818303038152906040526040518082805190602001908083835b6020831015156125aa5780518252602082019150602081019050602083039250612585565b6001836020036101000a0380198251168184511680821785525050505050509050019150506040518091039020611436565b935093509350509193909250565b6000808314156125fd576000905061261c565b818302905081838281151561260e57fe5b0414151561261857fe5b8090505b92915050565b60008060010285600001546000191614151561268f57600182141561266f5761264f8560030154846126b5565b8560030181905550600084111561266a578385600201819055505b612686565b61267d85600301548461269c565b85600301819055505b60019050612694565b600090505b949350505050565b60008282111515156126aa57fe5b818303905092915050565b600081830190508281101515156126c857fe5b80905092915050565b6000806103e88360030154111580156126ef57506103208360030154115b1561270a5761270383600201546002612952565b9050612820565b61032083600301541115801561272557506101f48360030154115b156127405761273983600201546004612952565b905061281f565b6101f483600301541115801561275b57506101908360030154115b156127765761276f83600201546006612952565b905061281e565b610190836003015411158015612790575060c88360030154115b156127ab576127a483600201546008612952565b905061281d565b60c88360030154111580156127c4575060648360030154115b156127df576127d88360020154600a612952565b905061281c565b60648360030154111580156127f8575060008360030154115b156128135761280c8360020154600c612952565b905061281b565b826002015490505b5b5b5b5b5b80836002018190555080915050919050565b60606000808360010184600201548560030154828054600181600116156101000203166002900480601f0160208091040260200160405190810160405280929190818152602001828054600181600116156101000203166002900480156128da5780601f106128af576101008083540402835291602001916128da565b820191906000526020600020905b8154815290600101906020018083116128bd57829003601f168201915b505050505092509250925092509193909250565b600080600102866000015460001916141561294457848660000181600019169055508386600101908051906020019061292892919061297e565b5081866003018190555082866002018190555060019050612949565b600090505b95945050505050565b60008060648310151561296157fe5b606483850281151561296f57fe5b04840190508091505092915050565b828054600181600116156101000203166002900490600052602060002090601f016020900481019282601f106129bf57805160ff19168380011785556129ed565b828001600101855582156129ed579182015b828111156129ec5782518255916020019190600101906129d1565b5b5090506129fa91906129fe565b5090565b612a2091905b80821115612a1c576000816000905550600101612a04565b5090565b905600a165627a7a723058203851d07351deac6a91ef541050061eff27960aabc5b783fee978c737fcc04cec0029",
  "source": "pragma solidity 0.4.24;\n\n/*\nMandatory tasks for Marketplace:\n\tok (20%) (lecture 6) Public method to buy a store item by specifying its ID (a string) and quantity. \nThe method should execute successfully if the marketplace has enough of the item in stock and the \nsent funds are sufficient. \nOverpay is considered a tip.\n\tok (10%) (lecture 6) Public method to update the stock of an item by taking its ID and the new \navailability (items in stock). \nThis method should only be called from the contract owner!\n\tok (10%) (lecture 6) Public method to add a new product to the Marketplace by specifying its name \n(string), price and initial quantity.\n\tok (10%) (lecture 6) Public constant method to get the price, name and stock about a product by its \nID.\n\tok (10%) (lecture 6) Public constant method that returns an array of all product IDs.\n\nOptional tasks for Marketplace:\n\tNone yet\n\nMandatory tasks for all topics:\n\t(40%) (lecture 10) Unit tests for all the methods in your contract (including all aforementioned). \nThe tests should handle all constraints around the contract. Example with DDNS: A test can be one that \ntries to register an already registered domain. \nThe test is passed if the operation fails (expected behavior).\n\n\nOptional tasks for all topics:\n\tok (5%) (lecture 5) Use contract events to signify that an activity has taken place in your contract. \nEvents can be for domain registration / \ntransfer (DDNS) or item purchase / stock update (Marketplace), for example.\n\t(20%) (lecture 8) Create a basic website with MetaMask that connects to a contract (published in a \ntest net or local blockchain). \nThe application should allow at least one operation with the contract (Domain registration or Store \npurchase are examples).\n\tok (5%) (lecture 6) Dynamic pricing. For DDNS, the base price can increase if a short domain name is \nbought. For Marketplace, price can increase as the stock of an item lowers.\n\tok (5%) (lecture 6) Public method to withdraw the funds from the contract. This should be called \nonly from the contract owner \n(the address which initially created the contract).\n*/\n\n    /**\n    * @title SafeMath\n    * @dev Math operations with safety checks that throw on error\n    */\n    library SafeMath {\n\n    /**\n    * @dev Multiplies two numbers, throws on overflow.\n    */\n    function mul(uint256 a, uint256 b) internal pure returns (uint256 c) {\n        // Gas optimization: this is cheaper than asserting 'a' not being zero, but the\n        // benefit is lost if 'b' is also tested.\n        // See: https://github.com/OpenZeppelin/openzeppelin-solidity/pull/522\n        if (a == 0) {\n        return 0;\n        }\n\n        c = a * b;\n        assert(c / a == b);\n        return c;\n    }\n\n    /**\n    * @dev Integer division of two numbers, truncating the quotient.\n    */\n    function div(uint256 a, uint256 b) internal pure returns (uint256) {\n        // assert(b > 0); // Solidity automatically throws when dividing by 0\n        // uint256 c = a / b;\n        // assert(a == b * c + a % b); // There is no case in which this doesn't hold\n        return a / b;\n    }\n\n    /**\n    * @dev Subtracts two numbers, throws on overflow (i.e. if subtrahend is greater than minuend).\n    */\n    function sub(uint256 a, uint256 b) internal pure returns (uint256) {\n        assert(b <= a);\n        return a - b;\n    }\n\n    /**\n    * @dev Adds two numbers, throws on overflow.\n    */\n    function add(uint256 a, uint256 b) internal pure returns (uint256 c) {\n        c = a + b;\n        assert(c >= a);\n        return c;\n    }\n \n    /**\n    * @dev Returns percent of number in uint256, throws on overflow.\n    */ \n    function percent100(uint number, uint percent) \n            internal \n            pure \n            returns(uint256) \n            {\n        assert(percent < 100);\n        uint256 retNumber = number + (number * percent / 100);\n        return retNumber;\n    }\n\n}\n\n\nlibrary StoreItemLib {\n  // We define a new struct datatype that will be used to\n  // hold its data in the calling contract.\n    \n    using SafeMath for uint;\n    struct StoreItem { // call it like StoreItem.itemId or self.itemId\n        bytes32 itemId;  // keccak256(itemName) -> bytes32(keccak256(abi.encodePacked(name)));\n        string name; // shirt, shoes, dress\n        uint price;\n        uint qty; // existing quantity\n    }\n\n    function getItemData(StoreItem storage self) \n            internal \n            view\n            returns (string, uint, uint) {\n        //(10%) (lecture 6) Public constant method to get the price, name and \n        //stock about a product by its ID.\n        return (self.name, self.price, self.qty);\n    }\n\n    function updItemPrice (StoreItem storage self)\n            internal\n            //view\n            returns (uint256)\n            {\n        /*\t(5%) (lecture 6) Dynamic pricing. \n         For Marketplace, price can increase as the stock of an item lowers.*/\n         /* the Formula is:\n         - if the number of items > 1000 -> 0% increase in price\n         - if the number of items are <= 1000 -> 2% increase in price \n         - if the number of items are <= 800 -> 4% increase in price \n         - if the number of items are <= 500 -> 6% increase in price \n         - if the number of items are <= 400 -> 8% increase in price \n         - if the number of items are <= 200 -> 10% increase in price \n         - if the number of items are <= 100 -> 12% increase in price \n\n         uint c = a * (b / 100) * 100; // = percent b * 100\n        */\n        uint newPrice; \n        if(self.qty <= 1000 && self.qty > 800){ // <= 1000 \n            newPrice = SafeMath.percent100(self.price, 2);\n        }\n        else if(self.qty <= 800 && self.qty > 500){ // <= 800 \n            newPrice = SafeMath.percent100(self.price, 4);\n        }\n        else if(self.qty <= 500 && self.qty > 400){ // <= 500 \n            newPrice = SafeMath.percent100(self.price, 6);\n        }\n        else if(self.qty <= 400 && self.qty > 200){ // <= 400\n            newPrice = SafeMath.percent100(self.price, 8);\n        }\n        else if(self.qty <= 200 && self.qty > 100){ // <= 200\n            newPrice = SafeMath.percent100(self.price, 10);\n        }\n        else if(self.qty <= 100 && self.qty > 0){ // <= 100\n            newPrice = SafeMath.percent100(self.price, 12);\n        }\n        else {   // (self.qty > 1000) {\n            newPrice = self.price;\n        }\n        self.price = newPrice;\n        return newPrice;\n    }\n\n     \n    function insertItem(StoreItem storage self, bytes32 _itemId, string _name, uint _price, uint _qty)\n        internal\n        returns (bool)\n        {           \n            if (self.itemId == 0) {// doesn't exist\n                self.itemId = _itemId;\n                self.name = _name;\n                self.qty = _qty;\n                self.price = _price;\n                \n                return true; \n            }\n            else {\n                return false; // already there\n            }\n        }\n\n\n    function updateItem (StoreItem storage self, uint _price, uint _qty, uint _oper) // operations: 0 - sub, 1 - add;\n        internal    \n        returns (bool) \n        {\n            /*\t(10%) (lecture 6) Public method to update the stock of an item by taking its ID and the new \n                availability (items in stock). \n                This method should only be called from the contract owner!*/\n        \n            if (self.itemId != 0) { //  exists\n                if(_oper == 1) { // operations: 0 - sub, 1 - add;\n                    self.qty = SafeMath.add(self.qty, _qty); // new supply \n                    if(_price > 0 ) {self.price = _price;}\n                    \n                }\n                else{\n                    self.qty = SafeMath.sub(self.qty, _qty); // buying item\n                }\n                return true; \n            }\n            else {\n                return false; // doesn't exist\n            }\n        }\n        \n\n}\n\n\ncontract Owned {\n    address public owner;  \n    \n    constructor () public {\n        owner = msg.sender;\n        //owner = _owner; // msg.sender\n    }\n    \n    modifier onlyOwner() {\n        require(msg.sender == owner, \"Only Owner!\");\n        _;\n    }\n\n    /*modifier onlyNotOwner() {\n        require(msg.sender != owner, \"Only not Owner!\");\n        _;\n    }*/\n\n}\n\n\n\ncontract Marketplace is Owned {\n    // libraries\n    using SafeMath for uint; //all integer operations are using the safe library\n    using StoreItemLib for StoreItemLib.StoreItem; \n\n    // state vars:\n    uint public tips; // Overpay is considered a tip.\n    bytes32 public itemIdToAddOrBuy; // itemId to be purchased\n    \n    // mapping for items\n    mapping(bytes32 => StoreItemLib.StoreItem) public items;\n    bytes32[] public itemIds; // array of all itemIds \n    bool public freezeContr; // to freeze contract for Security reason\n\n    //contract events\n    event LogItemPurchased(string desc, string name, uint price, uint qty, uint amount);\n    event LogTipsAdded(bytes32 id, uint tipAmount);\n    event LogItemInserted(string desc, string name, uint price, uint qty);\n    event LogItemSupplied(string desc, string name, uint price, uint qty); \n    event LogRefund(string desc, address indexed to, uint amount, uint tips); // log the event Refund\n    //event LogDestroyed(string desc, address owner);\n    event LogItemPriceChanged(string desc, string name, uint newPrice, uint oldPrice);\n    \n\n    // modifiers:\n    modifier onlyStoreItem(string _name) {\n        //the item should exist\n        itemIdToAddOrBuy = bytes32(keccak256(abi.encodePacked(_name))); //keccak256(_name);\n        require(items[itemIdToAddOrBuy].itemId != 0, \"Item doesn't exist in the Store!\");\n        _;\n    }\n\n    modifier canAddItem(string _name) {\n        itemIdToAddOrBuy = bytes32(keccak256(abi.encodePacked(_name))); //keccak256(_name);\n        require(items[itemIdToAddOrBuy].itemId == 0, \"Item exists in the Store.\"); //item shouldn't exist\n        _;\n    }\n    \n    \n    modifier canBuyItem(uint _qty) {\n        require(msg.value > 0, \"Amount sent should be positive\");\n        require(items[itemIdToAddOrBuy].qty >= _qty, \"Unsufficient quantity of item.\"); \n        require(msg.value >= SafeMath.mul(_qty, items[itemIdToAddOrBuy].price), \"Unsufficient amount sent.\");\n        _;\n    }\n\n    modifier contractNotFreezed(){\n        require (freezeContr == false, \"Contract is freezed\");\n        _;\n    }\n\n    constructor() Owned public {\n        freezeContr = false;\n    }\n\n\n    // functions    \n    function freezeContract() public onlyOwner {\n        // to freeze contract\n        freezeContr = true;\n    }\n\n    function unFreezeContract() public onlyOwner {\n        // to unFreeze contract\n        freezeContr = false;\n    }\n\n    function newProduct(string _name, uint _price, uint _qty) \n            contractNotFreezed\n            canAddItem (_name)\n            onlyOwner\n            public \n            returns(bytes32) {\n        /*  \t(10%) (lecture 6) Public method to add a new product to the \n            Marketplace by specifying its name \n            (string), price and initial quantity.\n        */\n        require(items[itemIdToAddOrBuy].insertItem(itemIdToAddOrBuy, _name, _price, _qty));\n        itemIds.push(itemIdToAddOrBuy);\n        emit LogItemInserted(\"Item is inserted\", _name, _price, _qty);\n        return itemIdToAddOrBuy;\n    }\n    \n    function update(string _name, uint _price, uint _qty) \n            contractNotFreezed\n            onlyStoreItem (_name)\n            onlyOwner\n            public \n            returns(bool) {\n            /*\t(10%) (lecture 6) Public method to update the stock of an item by taking its ID and the new \n                availability (items in stock). \n                This method should only be called from the contract owner!\n            */\n                \n        itemIdToAddOrBuy = bytes32(keccak256(abi.encodePacked(_name))); // keccak256(_name);\n        require(items[itemIdToAddOrBuy].updateItem(_price, _qty, 1)); // operations: 0 - sub, 1 - add;\n        emit LogItemSupplied(\"New supply for item: \", _name, _price, _qty);\n        return true;\n    }\n    \n\n    function buy(string _name, uint _qty)\n            contractNotFreezed\n            //onlyNotOwner\n            onlyStoreItem(_name)\n            canBuyItem (_qty)\n            public \n            payable\n            returns (bool)\n            {\n        /*\t(20%) (lecture 6) Public method to buy a store item by specifying its ID (a string) and quantity. \n        The method should execute successfully if the marketplace has enough of the item in stock and the \n        sent funds are sufficient. \n        Overpay is considered a tip.*/\n\n        // operations: 0 - sub, 1 - add;:\n        require(items[itemIdToAddOrBuy].updateItem(0, _qty, 0), \"Either missing quantity, or unsufficient amount\"); \n\n        uint _price = items[itemIdToAddOrBuy].price;\n        uint _amountOfPurchase = items[itemIdToAddOrBuy].price.mul(_qty);\n        uint _tip = msg.value.sub(_amountOfPurchase);\n        if (_tip > 0){\n            tips = tips.add(_tip);\n            emit LogTipsAdded(itemIdToAddOrBuy, _tip);\n        }\n\n        if (items[itemIdToAddOrBuy].updItemPrice() > 0) {\n            if(_price != items[itemIdToAddOrBuy].price){\n                emit LogItemPriceChanged(\"Increase in price\", _name, items[itemIdToAddOrBuy].price, _price);\n            }\n            emit LogItemPurchased(\"Item is purchased\", _name, _price, _qty, _amountOfPurchase);\n            return true;\n        }\n        else {\n            return false;\n        }\n        \n    }\n\n\n    function getItemByID(bytes32 _itemId)\n            contractNotFreezed\n            onlyOwner\n            public\n            view\n            returns (string, uint, uint) \n            {\n        /*  \t(10%) (lecture 6) Public constant method to get the price, name and stock about \n            a product by its ID.\n        */\n        // it is easier to be done by name - so 2 functions by ID and by name\n        require (items[_itemId].itemId != 0, \"ItemId doesn't exist in the store!\");\n        return items[_itemId].getItemData();\n    }\n\n\n    function getItemByName(string _name)\n            contractNotFreezed\n            onlyOwner\n            public\n            view\n            onlyStoreItem(_name)\n            returns (string, uint, uint)\n            {\n        /*  \t(10%) (lecture 6) Public constant method to get the price, name and stock about \n            a product by its ID.*/\n        // it is easier to be done by name - so 2 functions by ID and by name\n\n        return getItemByID(bytes32(keccak256(abi.encodePacked(_name))));\n    }\n\n\n    function getProducts()\n            contractNotFreezed\n            onlyOwner\n            public\n            view\n            returns (bytes32[])\n            {\n        /*\t(10%) (lecture 6) Public constant method that returns an array of all product IDs.*/\n        return itemIds;\n    }\n\n    function getPrice(bytes32 itemId) public view returns (uint) {\n        return items[itemId].price ;\n    }\n    \n    function withdraw() \n    /*(5%) (lecture 6) Public method to withdraw the funds from the contract. This should be called \n    only from the contract owner (the address which initially created the contract).*/\n            payable \n            public\n            contractNotFreezed\n            onlyOwner\n            returns (bool)\n            { //returns (uint)\n        require(address(this).balance > 0, \"Your balance is 0\");\n        uint _amount = address(this).balance; // amount and tips\n        emit LogRefund(\"Amount refund to owner, part of amount are tips: \", owner, _amount, tips);  \n        tips = 0;\n        msg.sender.transfer(_amount); \n        // msg.sender.transfer(address(this).balance);\n        return true;       \n    }\n\n\n    /*function destroyContract() onlyOwner {\n\t\tassert (msg.sender == owner); \n\t\temit LogDestroyed(\"Contract is destroyed: \", owner);\n        selfdestruct(owner);\n\t}*/\n\n \n\n}\n\n\n\n\n",
  "sourcePath": "D:\\Learning\\BlockChain\\Solidity_201806\\UnitTests\\unitTest_1\\contracts\\Marketplace.sol",
  "compiler": {
    "name": "solc",
    "version": "0.4.24+commit.e67f0147.Emscripten.clang"
  },
  "schemaVersion": "2.0.1",
  "updatedAt": "2018-08-05T09:05:16.812Z"
}